:1000000013C02CC02BC02AC029C028C068C026C07D
:1000100025C024C023C022C021C020C01FC01EC0D4
:100020001DC01CC01BC0B90011241FBECFE5D2E00B
:10003000DEBFCDBF20E0A0E6B0E001C01D92A13937
:10004000B207E1F710E0C4E1D0E003C02197FE0160
:10005000D2D0C331D107D1F702D0D3C0D1CF0FEF67
:100060000ABB08E307BB4091600607D040916106D8
:1000700007D04091620607D0F6CF0ED018E006C038
:100080000BD010E103C008D010E200C00BBB18BBBE
:1000900021D000E008BB0895403003E0D1F04130AA
:1000A0000FE9B9F0423005E2A1F043300DE089F0EC
:1000B000443009E971F0453009E459F0463001E473
:1000C00041F047300BE129F0483001E011F04930B0
:1000D00009E0089524E600002A95E9F708951F92A3
:1000E0000F920FB60F9211242F933F938F939F93EC
:1000F000AF93BF9380918D0090918E00A0918F005F
:10010000B091900030918C0026E0230F2D3768F1DC
:1001100029E8230F0396A11DB11D20938C00809325
:100120008D0090938E00A0938F00B09390008091EB
:10013000880090918900A0918A00B0918B0001966F
:10014000A11DB11D8093880090938900A0938A001F
:10015000B0938B00BF91AF919F918F913F912F9161
:100160000F900FBE0F901F9018950296A11DB11D04
:10017000D4CF8FB7F894BE98C6988FBFEAE7F0E067
:1001800080E4808386E390E09283818313861586E2
:1001900014861286118610861782168215821482A2
:1001A0001382A3E6B0E017961C92179718961C923C
:1001B00018971C9289E013968C93139781E01496FC
:1001C0008C93149715968C93159716968C93169777
:1001D00011961C92119756961C921E9255978FEF6E
:1001E00053968C93539754961C9254971A96FC935B
:1001F000EE9319970895EE0FFF1F0590F491E02DEF
:060200000994F894FFCF01
:00000001FF
